{
  "_format": "hh-sol-artifact-1",
  "contractName": "DidContract",
  "sourceName": "contracts/DidContract.sol",
  "abi": [
    {
      "inputs": [],
      "stateMutability": "nonpayable",
      "type": "constructor"
    },
    {
      "inputs": [
        {
          "internalType": "address",
          "name": "owner",
          "type": "address"
        }
      ],
      "name": "OwnableInvalidOwner",
      "type": "error"
    },
    {
      "inputs": [
        {
          "internalType": "address",
          "name": "account",
          "type": "address"
        }
      ],
      "name": "OwnableUnauthorizedAccount",
      "type": "error"
    },
    {
      "anonymous": false,
      "inputs": [
        {
          "indexed": false,
          "internalType": "string",
          "name": "DidAddress",
          "type": "string"
        },
        {
          "indexed": false,
          "internalType": "string",
          "name": "Hashdata",
          "type": "string"
        }
      ],
      "name": "EventSetDidData",
      "type": "event"
    },
    {
      "anonymous": false,
      "inputs": [
        {
          "indexed": false,
          "internalType": "string",
          "name": "DidAddress",
          "type": "string"
        },
        {
          "indexed": false,
          "internalType": "string",
          "name": "vcTitle",
          "type": "string"
        },
        {
          "indexed": false,
          "internalType": "string",
          "name": "vcHashData",
          "type": "string"
        }
      ],
      "name": "EventSetVcData",
      "type": "event"
    },
    {
      "anonymous": false,
      "inputs": [
        {
          "indexed": false,
          "internalType": "address",
          "name": "walletAddress",
          "type": "address"
        },
        {
          "indexed": false,
          "internalType": "string",
          "name": "Hashdata",
          "type": "string"
        }
      ],
      "name": "EventSetWalletData",
      "type": "event"
    },
    {
      "anonymous": false,
      "inputs": [
        {
          "indexed": true,
          "internalType": "address",
          "name": "previousOwner",
          "type": "address"
        },
        {
          "indexed": true,
          "internalType": "address",
          "name": "newOwner",
          "type": "address"
        }
      ],
      "name": "OwnershipTransferred",
      "type": "event"
    },
    {
      "inputs": [
        {
          "internalType": "string",
          "name": "",
          "type": "string"
        }
      ],
      "name": "DidData",
      "outputs": [
        {
          "internalType": "string",
          "name": "",
          "type": "string"
        }
      ],
      "stateMutability": "view",
      "type": "function"
    },
    {
      "inputs": [
        {
          "internalType": "string",
          "name": "",
          "type": "string"
        },
        {
          "internalType": "string",
          "name": "",
          "type": "string"
        }
      ],
      "name": "VcData",
      "outputs": [
        {
          "internalType": "string",
          "name": "",
          "type": "string"
        }
      ],
      "stateMutability": "view",
      "type": "function"
    },
    {
      "inputs": [
        {
          "internalType": "address",
          "name": "",
          "type": "address"
        }
      ],
      "name": "WalletData",
      "outputs": [
        {
          "internalType": "string",
          "name": "",
          "type": "string"
        }
      ],
      "stateMutability": "view",
      "type": "function"
    },
    {
      "inputs": [],
      "name": "owner",
      "outputs": [
        {
          "internalType": "address",
          "name": "",
          "type": "address"
        }
      ],
      "stateMutability": "view",
      "type": "function"
    },
    {
      "inputs": [
        {
          "internalType": "address",
          "name": "_address",
          "type": "address"
        },
        {
          "internalType": "string",
          "name": "_didaddress",
          "type": "string"
        }
      ],
      "name": "removeUser",
      "outputs": [],
      "stateMutability": "nonpayable",
      "type": "function"
    },
    {
      "inputs": [
        {
          "internalType": "string",
          "name": "_didaddress",
          "type": "string"
        },
        {
          "internalType": "string",
          "name": "_vcTitle",
          "type": "string"
        }
      ],
      "name": "removeVc",
      "outputs": [],
      "stateMutability": "nonpayable",
      "type": "function"
    },
    {
      "inputs": [],
      "name": "renounceOwnership",
      "outputs": [],
      "stateMutability": "nonpayable",
      "type": "function"
    },
    {
      "inputs": [
        {
          "internalType": "string",
          "name": "_didaddress",
          "type": "string"
        },
        {
          "internalType": "string",
          "name": "_HashData",
          "type": "string"
        }
      ],
      "name": "setDidData",
      "outputs": [],
      "stateMutability": "nonpayable",
      "type": "function"
    },
    {
      "inputs": [
        {
          "internalType": "string",
          "name": "_didaddress",
          "type": "string"
        },
        {
          "internalType": "string",
          "name": "_vcTitle",
          "type": "string"
        },
        {
          "internalType": "string",
          "name": "_vcHashData",
          "type": "string"
        }
      ],
      "name": "setVcData",
      "outputs": [],
      "stateMutability": "nonpayable",
      "type": "function"
    },
    {
      "inputs": [
        {
          "internalType": "address",
          "name": "_address",
          "type": "address"
        },
        {
          "internalType": "string",
          "name": "_HashData",
          "type": "string"
        }
      ],
      "name": "setWalletData",
      "outputs": [],
      "stateMutability": "nonpayable",
      "type": "function"
    },
    {
      "inputs": [
        {
          "internalType": "address",
          "name": "newOwner",
          "type": "address"
        }
      ],
      "name": "transferOwnership",
      "outputs": [],
      "stateMutability": "nonpayable",
      "type": "function"
    }
  ],
  "bytecode": "0x608060405234801561001057600080fd5b5033600073ffffffffffffffffffffffffffffffffffffffff168173ffffffffffffffffffffffffffffffffffffffff16036100845760006040517f1e4fbdf700000000000000000000000000000000000000000000000000000000815260040161007b919061019e565b60405180910390fd5b6100938161009960201b60201c565b506101b9565b60008060009054906101000a900473ffffffffffffffffffffffffffffffffffffffff169050816000806101000a81548173ffffffffffffffffffffffffffffffffffffffff021916908373ffffffffffffffffffffffffffffffffffffffff1602179055508173ffffffffffffffffffffffffffffffffffffffff168173ffffffffffffffffffffffffffffffffffffffff167f8be0079c531659141344cd1fd0a4f28419497f9722a3daafe3b4186f6b6457e060405160405180910390a35050565b600073ffffffffffffffffffffffffffffffffffffffff82169050919050565b60006101888261015d565b9050919050565b6101988161017d565b82525050565b60006020820190506101b3600083018461018f565b92915050565b6111ae806101c86000396000f3fe608060405234801561001057600080fd5b50600436106100a95760003560e01c806389325aae1161007157806389325aae1461013c5780638da5cb5b14610158578063995eca2214610176578063ac10f234146101a6578063dcc2260d146101c2578063f2fde38b146101f2576100a9565b80630c0c2b0b146100ae578063269bc23c146100ca5780634afbd244146100e6578063715018a61461011657806380026a5914610120575b600080fd5b6100c860048036038101906100c39190610a70565b61020e565b005b6100e460048036038101906100df9190610b75565b61029e565b005b61010060048036038101906100fb9190610bd1565b610330565b60405161010d9190610c99565b60405180910390f35b61011e6103e6565b005b61013a60048036038101906101359190610b75565b6103fa565b005b61015660048036038101906101519190610cbb565b61047b565b005b6101606104cd565b60405161016d9190610d42565b60405180910390f35b610190600480360381019061018b9190610cbb565b6104f6565b60405161019d9190610c99565b60405180910390f35b6101c060048036038101906101bb9190610cbb565b6105cf565b005b6101dc60048036038101906101d79190610d5d565b610640565b6040516101e99190610c99565b60405180910390f35b61020c60048036038101906102079190610d5d565b6106e0565b005b610216610766565b806003846040516102279190610dc6565b9081526020016040518091039020836040516102439190610dc6565b9081526020016040518091039020908161025d9190610ff3565b507f6fb9dba60c422397904c5b9b9a9c4d0c8e9a1a627307c39b11ba3f86ec3159db838383604051610291939291906110c5565b60405180910390a1505050565b6102a6610766565b80600160008473ffffffffffffffffffffffffffffffffffffffff1673ffffffffffffffffffffffffffffffffffffffff16815260200190815260200160002090816102f29190610ff3565b507f19cde0105ca284e26f1126c5dc2b589729c32ae2901b59c81f72f836e0adf60c8282604051610324929190611111565b60405180910390a15050565b600281805160208101820180518482526020830160208501208183528095505050505050600091509050805461036590610e0c565b80601f016020809104026020016040519081016040528092919081815260200182805461039190610e0c565b80156103de5780601f106103b3576101008083540402835291602001916103de565b820191906000526020600020905b8154815290600101906020018083116103c157829003601f168201915b505050505081565b6103ee610766565b6103f860006107ed565b565b610402610766565b600160008373ffffffffffffffffffffffffffffffffffffffff1673ffffffffffffffffffffffffffffffffffffffff168152602001908152602001600020600061044d91906108b9565b60028160405161045d9190610dc6565b9081526020016040518091039020600061047791906108b9565b5050565b610483610766565b6003826040516104939190610dc6565b9081526020016040518091039020816040516104af9190610dc6565b908152602001604051809103902060006104c991906108b9565b5050565b60008060009054906101000a900473ffffffffffffffffffffffffffffffffffffffff16905090565b6003828051602081018201805184825260208301602085012081835280955050505050508180516020810182018051848252602083016020850120818352809550505050505060009150915050805461054e90610e0c565b80601f016020809104026020016040519081016040528092919081815260200182805461057a90610e0c565b80156105c75780601f1061059c576101008083540402835291602001916105c7565b820191906000526020600020905b8154815290600101906020018083116105aa57829003601f168201915b505050505081565b6105d7610766565b806002836040516105e89190610dc6565b908152602001604051809103902090816106029190610ff3565b507ff5ff7b5e88e8dc6d3e26079398c40fcbaf125a4b84a11431c5664fb5a2e04a7e8282604051610634929190611141565b60405180910390a15050565b6001602052806000526040600020600091509050805461065f90610e0c565b80601f016020809104026020016040519081016040528092919081815260200182805461068b90610e0c565b80156106d85780601f106106ad576101008083540402835291602001916106d8565b820191906000526020600020905b8154815290600101906020018083116106bb57829003601f168201915b505050505081565b6106e8610766565b600073ffffffffffffffffffffffffffffffffffffffff168173ffffffffffffffffffffffffffffffffffffffff160361075a5760006040517f1e4fbdf70000000000000000000000000000000000000000000000000000000081526004016107519190610d42565b60405180910390fd5b610763816107ed565b50565b61076e6108b1565b73ffffffffffffffffffffffffffffffffffffffff1661078c6104cd565b73ffffffffffffffffffffffffffffffffffffffff16146107eb576107af6108b1565b6040517f118cdaa70000000000000000000000000000000000000000000000000000000081526004016107e29190610d42565b60405180910390fd5b565b60008060009054906101000a900473ffffffffffffffffffffffffffffffffffffffff169050816000806101000a81548173ffffffffffffffffffffffffffffffffffffffff021916908373ffffffffffffffffffffffffffffffffffffffff1602179055508173ffffffffffffffffffffffffffffffffffffffff168173ffffffffffffffffffffffffffffffffffffffff167f8be0079c531659141344cd1fd0a4f28419497f9722a3daafe3b4186f6b6457e060405160405180910390a35050565b600033905090565b5080546108c590610e0c565b6000825580601f106108d757506108f6565b601f0160209004906000526020600020908101906108f591906108f9565b5b50565b5b808211156109125760008160009055506001016108fa565b5090565b6000604051905090565b600080fd5b600080fd5b600080fd5b600080fd5b6000601f19601f8301169050919050565b7f4e487b7100000000000000000000000000000000000000000000000000000000600052604160045260246000fd5b61097d82610934565b810181811067ffffffffffffffff8211171561099c5761099b610945565b5b80604052505050565b60006109af610916565b90506109bb8282610974565b919050565b600067ffffffffffffffff8211156109db576109da610945565b5b6109e482610934565b9050602081019050919050565b82818337600083830152505050565b6000610a13610a0e846109c0565b6109a5565b905082815260208101848484011115610a2f57610a2e61092f565b5b610a3a8482856109f1565b509392505050565b600082601f830112610a5757610a5661092a565b5b8135610a67848260208601610a00565b91505092915050565b600080600060608486031215610a8957610a88610920565b5b600084013567ffffffffffffffff811115610aa757610aa6610925565b5b610ab386828701610a42565b935050602084013567ffffffffffffffff811115610ad457610ad3610925565b5b610ae086828701610a42565b925050604084013567ffffffffffffffff811115610b0157610b00610925565b5b610b0d86828701610a42565b9150509250925092565b600073ffffffffffffffffffffffffffffffffffffffff82169050919050565b6000610b4282610b17565b9050919050565b610b5281610b37565b8114610b5d57600080fd5b50565b600081359050610b6f81610b49565b92915050565b60008060408385031215610b8c57610b8b610920565b5b6000610b9a85828601610b60565b925050602083013567ffffffffffffffff811115610bbb57610bba610925565b5b610bc785828601610a42565b9150509250929050565b600060208284031215610be757610be6610920565b5b600082013567ffffffffffffffff811115610c0557610c04610925565b5b610c1184828501610a42565b91505092915050565b600081519050919050565b600082825260208201905092915050565b60005b83811015610c54578082015181840152602081019050610c39565b60008484015250505050565b6000610c6b82610c1a565b610c758185610c25565b9350610c85818560208601610c36565b610c8e81610934565b840191505092915050565b60006020820190508181036000830152610cb38184610c60565b905092915050565b60008060408385031215610cd257610cd1610920565b5b600083013567ffffffffffffffff811115610cf057610cef610925565b5b610cfc85828601610a42565b925050602083013567ffffffffffffffff811115610d1d57610d1c610925565b5b610d2985828601610a42565b9150509250929050565b610d3c81610b37565b82525050565b6000602082019050610d576000830184610d33565b92915050565b600060208284031215610d7357610d72610920565b5b6000610d8184828501610b60565b91505092915050565b600081905092915050565b6000610da082610c1a565b610daa8185610d8a565b9350610dba818560208601610c36565b80840191505092915050565b6000610dd28284610d95565b915081905092915050565b7f4e487b7100000000000000000000000000000000000000000000000000000000600052602260045260246000fd5b60006002820490506001821680610e2457607f821691505b602082108103610e3757610e36610ddd565b5b50919050565b60008190508160005260206000209050919050565b60006020601f8301049050919050565b600082821b905092915050565b600060088302610e9f7fffffffffffffffffffffffffffffffffffffffffffffffffffffffffffffffff82610e62565b610ea98683610e62565b95508019841693508086168417925050509392505050565b6000819050919050565b6000819050919050565b6000610ef0610eeb610ee684610ec1565b610ecb565b610ec1565b9050919050565b6000819050919050565b610f0a83610ed5565b610f1e610f1682610ef7565b848454610e6f565b825550505050565b600090565b610f33610f26565b610f3e818484610f01565b505050565b5b81811015610f6257610f57600082610f2b565b600181019050610f44565b5050565b601f821115610fa757610f7881610e3d565b610f8184610e52565b81016020851015610f90578190505b610fa4610f9c85610e52565b830182610f43565b50505b505050565b600082821c905092915050565b6000610fca60001984600802610fac565b1980831691505092915050565b6000610fe38383610fb9565b9150826002028217905092915050565b610ffc82610c1a565b67ffffffffffffffff81111561101557611014610945565b5b61101f8254610e0c565b61102a828285610f66565b600060209050601f83116001811461105d576000841561104b578287015190505b6110558582610fd7565b8655506110bd565b601f19841661106b86610e3d565b60005b828110156110935784890151825560018201915060208501945060208101905061106e565b868310156110b057848901516110ac601f891682610fb9565b8355505b6001600288020188555050505b505050505050565b600060608201905081810360008301526110df8186610c60565b905081810360208301526110f38185610c60565b905081810360408301526111078184610c60565b9050949350505050565b60006040820190506111266000830185610d33565b81810360208301526111388184610c60565b90509392505050565b6000604082019050818103600083015261115b8185610c60565b9050818103602083015261116f8184610c60565b9050939250505056fea2646970667358221220b66091466e087526b2a901d602398e5a3446419c4978598e2a802b2be6b4bbb364736f6c634300081e0033",
  "linkReferences": {},
  "deployedLinkReferences": {}
}